:020000020000FC
:02000000FFC03F
:02000800FBC13A
:0200100004C228
:1002000000E10EBF0FEF0DBF00E80ABB0FE004BB1B
:100210000EE005BB002707BB0AE008BB0CEC00930F
:100220006A000AE009BF789441E0DF9800E1041B0E
:100230008FEF9FEF0197F1F70A95D1F7DF9A00E171
:10024000041B8FEF9FEF0197F1F70A95D1F7EDCFE0
:100400000F930FB70F93413021F04A950FEF042758
:1004100005BB0F910FBF0F9118950F930FB70F9357
:100420004F3021F043950FEF042705BB0F910FBF0D
:060430000F910F911895D9
:00000001FF
